:100000000C9434000C9449000C9449000C94490061
:100010000C9449000C9449000C9449000C9449003C
:100020000C9449000C9449000C9449000C9449002C
:100030000C9449000C9449000C9449000C9449001C
:100040000C9449000C9449000C9449000C9449000C
:100050000C9449000C9449000C9449000C944900FC
:100060000C9449000C94490011241FBECFEFD8E036
:10007000DEBFCDBF11E0A0E0B1E0E4E2FAE002C0F3
:1000800005900D92AC39B107D9F70E94B6000C94D7
:1000900010050C9400008AB180648AB983E884BD9D
:1000A00082E085BD08959093C5008093C40088E1E7
:1000B0008093C10086E08093C20008959091C000B3
:1000C00095FFFCCF8093C60008958091C0008823DF
:1000D000E4F78091C6000895CF93DF93EC01888107
:1000E000882321F021960E945E00F9CFDF91CF9105
:1000F000089580E480937C0086E880937A000895D8
:10010000ECE7F0E08081807F81608083EAE7F0E0C7
:1001100080818064808380917A0086FDFCCF80910D
:10012000780090917900089584B1846084B980E169
:100130008093800089E0809381000895880F991F43
:100140009C0140E050E060E074E284EF90E00E94A7
:10015000C10121503109309389002093880008950E
:1001600087BD089585E083BF88950895CF93DF9379
:10017000CDB7DEB7EC970FB6F894DEBF0FBECDBF9C
:1001800087E690E00E9453000E9479000E944B0095
:100190000E94940087B18B7F87B988B1846088B949
:1001A000FE0131968AE0DF011D928A95E9F7789485
:1001B000E12CF12CD12C02E310E0329B03C00E9411
:1001C000B200FBCFB0EDEB16B7E0FB06D8F01F9303
:1001D0000F9380E091E09F938F931F9282E38F9320
:1001E0007E012BE0E20EF11CFF92EF920E941802BA
:1001F000C7010E946C000FB6F894DEBF0FBECDBFE2
:10020000E12CF12C8091C00088230CF096C00E9454
:1002100065008B3211F08D3269F58B3219F42AE0CA
:1002200030E002C026EF3FEF200F311F22333105AF
:1002300010F422E330E0293E93E0390710F028EE75
:1002400033E03F932F9385E191E09F938F931F922B
:1002500082E38F938E01055F1F4F1F930F930E94C0
:100260001802C8010E946C000FB6F894DEBF0FBEE2
:10027000CDBF63C090ED980F9A3028F08A3019F006
:100280008D3009F05AC09A3040F4E1E0F0E0EC0F14
:10029000FD1FED0DF11D8083D3948A3019F08D3050
:1002A00009F04BC0E1E0F0E0EC0FFD1FED0DF11D9A
:1002B0001082CE0101960E94F2018C011F938F9350
:1002C00083E391E09F938F931F9282E38F936E015C
:1002D000BBE0CB0ED11CDF92CF920E941802C60168
:1002E0000E946C00C801C2970FB6F894DEBF0FBE23
:1002F000CDBF873B9340E0F48FE491E00E946C0017
:100300001F930F938CE291E09F938F931F9282E350
:100310008F9386011F93CF920E941802C6010E94FC
:100320006C000FB6F894DEBF0FBECDBFD12C05C058
:1003300083E691E00E946C00D12C0E9480009C0119
:10034000A6EBB3E00E94E3012FEF33E040E050E082
:100350000E94C10189010E5C1F4FC8010E949E00CE
:10036000C80196958795969587950E94B000A9EF4C
:10037000B0E01197F1F700C00000BFEFEB1AFB0AE5
:100380001CCFA1E21A2EAA1BBB1BFD010DC0AA1F88
:10039000BB1FEE1FFF1FA217B307E407F50720F0EE
:1003A000A21BB30BE40BF50B661F771F881F991F69
:1003B0001A9469F760957095809590959B01AC01B2
:1003C000BD01CF010895A29FB001B39FC001A39FBB
:1003D000700D811D1124911DB29F700D811D11247E
:1003E000911D0895FC0188279927E89421912032D6
:1003F000E9F3293010F02E30C8F32B3241F02D32C2
:1004000039F4689404C00E941002820F911D21915A
:1004100020532A30C0F31EF4909581959F4F089584
:100420007AE0979F902D879F802D910D112408953C
:10043000AEE0B0E0EEE1F2E00C94E7040D891E8935
:100440008F89988D26E02C831A83098397FF02C039
:1004500080E090E801979E838D83AE01455E5F4FFB
:10046000698D7A8DCE0101960E9448024D815E8190
:1004700057FD0AC02F813885421753070CF49A01A3
:10048000F801E20FF31F10822E96E4E00C940305AE
:10049000ABE0B0E0EEE4F2E00C94D9046C017B0137
:1004A0008A01FC0117821682838181FFCCC1CE01B3
:1004B00001963C01F6019381F70193FD859193FF2D
:1004C00081917F01882309F4BAC1853239F493FD03
:1004D000859193FF81917F01853229F4B60190E0E7
:1004E0000E943F04E7CF912C212C312CFFE1F31522
:1004F000D8F08B3279F038F4803279F08332A1F47D
:10050000232D20611DC08D3261F0803369F4232DCD
:10051000216016C0832D8260382EE32DE4603E2ECC
:100520002AC0F32DF8601DC037FC2DC020ED280F28
:100530002A3040F08E32B9F436FC81C1232D20647C
:10054000322E19C036FE06C08AE0989E200D112476
:10055000922E11C0EAE02E9E200D1124222EF32DA2
:10056000F0623F2E08C08C3621F4832D8068382E2F
:1005700002C0883641F4F70193FD859193FF819184
:100580007F018111B3CF982F9F7D9554933028F42C
:100590000C5F1F4F9FE399830DC0833631F0833783
:1005A00071F0833509F059C021C0F8018081898339
:1005B0000E5F1F4F88248394912C530113C0280190
:1005C000F2E04F0E511CF801A080B18036FE03C04E
:1005D000692D70E002C06FEF7FEFC5010E94340407
:1005E0004C018201F32DFF773F2E16C0280122E037
:1005F000420E511CF801A080B18036FE03C0692D67
:1006000070E002C06FEF7FEFC5010E9429044C012A
:10061000F32DF0683F2E820133FC1BC0822D90E049
:1006200088169906B0F4B60180E290E00E943F047B
:100630002A94F4CFF50137FC859137FE81915F0153
:10064000B60190E00E943F0421102A9421E0821A12
:1006500091088114910471F7E8C0843611F089364D
:1006600041F5F80137FE07C0608171818281938175
:100670000C5F1F4F08C060817181072E000C880B32
:10068000990B0E5F1F4FF32DFF763F2E97FF09C08A
:1006900090958095709561957F4F8F4F9F4FF06833
:1006A0003F2E2AE030E0A3010E947B04882E8618AA
:1006B00045C0853731F4232D2F7EB22E2AE030E05D
:1006C00025C0932D997FB92E8F36C1F018F4883547
:1006D00079F0B5C0803719F0883721F0B0C0E92F24
:1006E000E061BE2EB4FE0DC0FB2DF460BF2E09C02C
:1006F00034FE0AC0292F2660B22E06C028E030E062
:1007000005C020E130E002C020E132E0F801B7FE90
:1007100007C060817181828193810C5F1F4F06C089
:100720006081718180E090E00E5F1F4FA3010E9405
:100730007B04882E8618FB2DFF773F2E36FE0DC0DA
:10074000232D2E7FA22E891458F434FE0BC032FCC8
:1007500009C0832D8E7EA82E05C0B82CA32C03C003
:10076000B82C01C0B92CA4FE0FC0FE01E80DF11D8C
:100770008081803321F49A2D997EA92E09C0A2FE92
:1007800006C0B394B39404C08A2D867809F0B3945C
:10079000A3FC11C0A0FE06C0B21488F4280C922C51
:1007A0009B180EC0B21460F4B60180E290E00E9483
:1007B0003F04B394F7CFB21418F42B1802C0982C4E
:1007C000212CA4FE10C0B60180E390E00E943F04FB
:1007D000A2FE17C0A1FC03C088E790E002C088E534
:1007E00090E0B6010CC08A2D867859F0A1FE02C0B7
:1007F0008BE201C080E2A7FC8DE2B60190E00E948E
:100800003F04891438F4B60180E390E00E943F046D
:100810009A94F7CF8A94F301E80DF11D8081B60117
:1008200090E00E943F048110F5CF222009F442CECF
:10083000B60180E290E00E943F042A94F6CFF601D0
:100840008681978102C08FEF9FEF2B96E2E10C9497
:10085000F504FC010590615070400110D8F78095B7
:1008600090958E0F9F1F0895FC016150704001907C
:100870000110D8F7809590958E0F9F1F08950F93C4
:100880001F93CF93DF93FB01238121FD03C08FEFE3
:100890009FEF2CC022FF16C04681578124813581ED
:1008A0004217530744F4A081B1819D012F5F3F4F50
:1008B000318320838C93268137812F5F3F4F37838D
:1008C000268314C08B01EC01FB010084F185E02D2F
:1008D0000995892BE1F6D80116968D919C91179771
:1008E000019617969C938E931697CE01DF91CF9128
:1008F0001F910F910895FA01AA27283051F1203154
:1009000081F1E8946F936E7F6E5F7F4F8F4F9F4FA3
:10091000AF4FB1E03ED0B4E03CD0670F781F891FE5
:100920009A1FA11D680F791F8A1F911DA11D6A0FB3
:10093000711D811D911DA11D20D009F468943F9166
:100940002AE0269F11243019305D3193DEF6CF0165
:100950000895462F4770405D4193B3E00FD0C9F72B
:10096000F6CF462F4F70405D4A3318F0495D31FD98
:100970004052419302D0A9F7EACFB4E0A6959795EB
:10098000879577956795BA95C9F7009761057105C1
:1009900008959B01AC010A2E06945795479537950B
:1009A0002795BA95C9F7620F731F841F951FA01D65
:1009B00008952F923F924F925F926F927F928F9203
:1009C0009F92AF92BF92CF92DF92EF92FF920F93DE
:1009D0001F93CF93DF93CDB7DEB7CA1BDB0B0FB6E8
:1009E000F894DEBF0FBECDBF09942A8839884888A5
:1009F0005F846E847D848C849B84AA84B984C8843B
:100A0000DF80EE80FD800C811B81AA81B981CE0F31
:100A1000D11D0FB6F894DEBF0FBECDBFED01089516
:040A2000F894FFCF78
:100A24000A4672657175656E637920697320257550
:100A340020487A0A000A4672657175656E637920EA
:100A44007570646174656420746F3A20257520485C
:100A54007A0A000A52656365697665642066726580
:100A64007175656E63793A20257520487A0A000A03
:100A74004672657175656E63792073657420746F51
:100A84003A20000A496E76616C6964206672657169
:100A940075656E63792E20456E74657220612076CB
:100AA400616C7565206265747765656E20353020EC
:0C0AB400616E6420313030302E0A0000EA
:00000001FF
